:100000000C942A000C9447000C9447000C94470071
:100010000C9447000C9447000C9447000C94470044
:100020000C9447000C9447000C9447000C94470034
:100030000C9447000C9447000C9447000C94470024
:100040000C9447000C9447000C9447000C94470014
:100050000C94470011241FBECFE5D8E0DEBFCDBF12
:1000600010E0A0E6B0E0EAE6F5E002C005900D92EF
:10007000A037B107D9F710E0A0E7B0E001C01D92AA
:10008000A237B107E1F70E94A8020C94B3020C94C6
:100090000000813009F1813030F08230B1F18330DD
:1000A00009F064C04BC0413059F42AB381E090E0BC
:1000B00002C0880F991F6A95E2F7282B2ABB089582
:1000C0002AB381E090E002C0880F991F6A95E2F799
:1000D000809582238ABB0895413059F427B381E08B
:1000E00090E002C0880F991F6A95E2F7282B27BB82
:1000F000089527B381E090E002C0880F991F6A95A8
:10010000E2F78095822387BB0895413059F424B3E8
:1001100081E090E002C0880F991F6A95E2F7282BD2
:1001200024BB089524B381E090E002C0880F991F9A
:100130006A95E2F78095822384BB0895413059F493
:1001400021B381E090E002C0880F991F6A95E2F721
:10015000282B21BB089521B381E090E002C0880FD5
:10016000991F6A95E2F78095822381BB08958130BB
:1001700009F1813030F08230B1F1833009F064C090
:100180004BC0413059F42BB381E090E002C0880F9E
:10019000991F6A95E2F7282B2BBB08952BB381E0BA
:1001A00090E002C0880F991F6A95E2F7809582233C
:1001B0008BBB0895413059F428B381E090E002C030
:1001C000880F991F6A95E2F7282B28BB089528B35A
:1001D00081E090E002C0880F991F6A95E2F7809550
:1001E000822388BB0895413059F425B381E090E023
:1001F00002C0880F991F6A95E2F7282B25BB089546
:1002000025B381E090E002C0880F991F6A95E2F75C
:100210008095822385BB0895413059F422B381E053
:1002200090E002C0880F991F6A95E2F7282B22BB45
:10023000089522B381E090E002C0880F991F6A956B
:10024000E2F78095822382BB0895813049F08130A6
:1002500028F0823039F0833041F406C06ABB08953B
:1002600067BB089564BB089561BB0895813049F070
:10027000813028F0823039F0833041F406C06BBB06
:10028000089568BB089565BB089562BB08958130E9
:1002900069F082301CF4882339F004C0823041F0C8
:1002A000833079F08FEF089589B303C086B301C01E
:1002B00083B390E002C0959587956A95E2F78170C7
:1002C000089580B390E002C0959587956A95E2F70E
:1002D00081700895813069F082301CF4882339F0F0
:1002E00004C0823041F0833041F08FEF089589B32C
:1002F000089586B3089583B3089580B308958091D7
:1003000071008F5F80937100803158F010927100FE
:10031000809170008F5F80937000823010F0109297
:100320007000089508950F931F93182F81E060E0E7
:1003300040E00E94B70081E061E040E00E94B70029
:1003400080E0612F0E94360181E062E041E00E947E
:10035000B70000ED17E0C8010197F1F781E062E016
:1003600040E00E94B700C8010197F1F71F910F917B
:10037000089581E00E949301109270001092710024
:1003800080EA9FE00197F1F70895603170F48130C1
:1003900019F0823051F405C0862F80580E949301D5
:1003A0000895862F80540E94930108950F931F9300
:1003B000182F809170008F5F609171000E94C501BD
:1003C00081E060E041E00E94B70081E061E040E050
:1003D0000E94B70080E0612F0E94360181E062E058
:1003E00041E00E94B70000ED17E0C8010197F1F766
:1003F00081E062E040E00E94B700C8010197F1F798
:100400000E947F011F910F9108951F93CF93DF9357
:10041000EC0110E003C00E94D6011F5FFE01E10F56
:10042000F11D80818823B9F7DF91CF911F91089545
:100430000F931F9380E061E00E94250181E060E05E
:1004400041E00E94490081E061E041E00E944900F2
:1004500081E062E041E00E94490084EF91E028ECF5
:1004600030E0F9013197F1F70197D9F788E30E945D
:10047000930100ED17E0C8010197F1F78EE00E94AB
:100480009301C8010197F1F781E00E94930180EA8E
:100490009FE00197F1F786E00E9493011F910F9171
:1004A0000895FF920F931F93CF93DF9382E06FEF36
:1004B0000E94360100E0C0E4DCE982E0602F40E009
:1004C0000E94B70010E094E0F92EF10E82E06F2D4B
:1004D0000E944701882301F5CE010197F1F782E0E0
:1004E0006F2D0E9447018823B9F4E12FF0E0EE0F51
:1004F000FF1FEE0FFF1FE00FF11DE05AFF4F1081AD
:1005000082E06F2D0E9447018823D1F382E0602FA3
:1005100041E00E94B7000CC01F5F1430A1F682E0DA
:10052000602F41E00E94B7000F5F043031F61FEFEB
:10053000812FDF91CF911F910F91FF90089582E05D
:100540006FE00E94250182E06FEF0E94360108955E
:100550000E949F020E9418020E9451028F3FE1F305
:0A0560000E94D601F9CFF894FFCFF6
:10056A0037343143383532303936333D2F2A2D2B43
:00000001FF
