:100000000C942A000C943F000C943F000C943F0089
:100010000C943F000C943F000C943F000C943F0064
:100020000C943F000C943F000C943F000C943F0054
:100030000C943F000C943F000C943F000C943F0044
:100040000C943F000C943F000C943F000C943F0034
:100050000C943F0011241FBECFE5D8E0DEBFCDBF1A
:1000600010E0A0E6B0E0ECEBF0E002C005900D92ED
:10007000AA36B107D9F70E9441000C945C000C9499
:1000800000008FE784BB15BA17BA81E088BB20E077
:1000900040E45CE92A3009F420E0B0990AC0CA01C2
:1000A0000197F1F7E22FF0E0E05AFF4F808185BB26
:0C00B0002F5FB09BFECFEECFF894FFCF87
:0A00BC003F065B4F666D7D077F6F06
:00000001FF
