:100000000C942A000C942D010C9456010C947F0141
:100010000C9447000C9447000C9447000C94470044
:100020000C9447000C9447000C9468000C94470013
:100030000C9447000C9447000C9447000C94470024
:100040000C9447000C9447000C9447000C94470014
:100050000C94470011241FBECFE5D8E0DEBFCDBF12
:1000600010E0A0E6B0E0EAEAF8E002C005900D92E8
:10007000AE36B107D9F710E0AEE6B0E001C01D9290
:10008000AE37B107E1F70E9423040C9453040C949B
:10009000000088E083BF89B7826089BF089583B775
:1000A000887F826083BF089583B7887F83BF089568
:1000B00060936E0070936F00809370009093710056
:1000C0000895909373008093720008958CBF0895F3
:1000D0001F920F920FB60F9211242F933F934F93BD
:1000E0005F936F937F938F939F93AF93BF93EF93A0
:1000F000FF938091740090917500A0917600B0916B
:1001000077000196A11DB11D809374009093750036
:10011000A0937600B093770020916E0030916F002D
:10012000409170005091710082179307A407B507A2
:1001300078F0109274001092750010927600109270
:100140007700E0917200F0917300309709F0099503
:10015000FF91EF91BF91AF919F918F917F916F919F
:100160005F914F913F912F910F900FBE0F901F9075
:1001700018958FB780688FBF08958FB78F778FBF1F
:100180000895813001F1813020F0823009F041C0C2
:1001900035C0662319F485B78E7F04C0613031F411
:1001A00085B7816085BF85B78D7F26C0623019F421
:1001B00085B78E7F04C0633061F585B7816085BFE8
:1001C00085B7826019C0662319F485B78B7F04C098
:1001D000613031F485B7846085BF85B7877F0CC0F7
:1001E000623019F485B78B7F04C0633091F485B712
:1001F000846085BF85B7886085BF0895623021F42B
:1002000084B78F7B84BF0895633019F484B780640A
:1002100084BF08959BB721E030E002C0220F331F56
:100220008A95E2F7922B9BBF08959BB721E030E0BF
:1002300002C0220F331F8A95E2F7209529232BBF96
:1002400008956115710541F0E82FF0E0EE0FFF1FF2
:10025000E858FF4F7183608308951F920F920FB685
:100260000F9211242F933F934F935F936F937F933C
:100270008F939F93AF93BF93EF93FF93E091780099
:10028000F0917900309709F00995FF91EF91BF91B6
:10029000AF919F918F917F916F915F914F913F911E
:1002A0002F910F900FBE0F901F9018951F920F92D5
:1002B0000FB60F9211242F933F934F935F936F9339
:1002C0007F938F939F93AF93BF93EF93FF93E091AF
:1002D0007A00F0917B00309709F00995FF91EF913A
:1002E000BF91AF919F918F917F916F915F914F914E
:1002F0003F912F910F900FBE0F901F9018951F9256
:100300000F920FB60F9211242F933F934F935F9349
:100310006F937F938F939F93AF93BF93EF93FF93CD
:10032000E0917C00F0917D00309709F00995FF91F4
:10033000EF91BF91AF919F918F917F916F915F915D
:100340004F913F912F910F900FBE0F901F901895D6
:1003500083E062E040E00E94BC0183E062E041E0B3
:100360000E942A0285B78E7F85BF85B7826085BFD0
:100370008BB780648BBF0895813009F1813030F0F4
:100380008230B1F1833009F064C04BC0413059F480
:100390002AB381E090E002C0880F991F6A95E2F7C6
:1003A000282B2ABB08952AB381E090E002C0880F71
:1003B000991F6A95E2F7809582238ABB08954130A0
:1003C00059F427B381E090E002C0880F991F6A9525
:1003D000E2F7282B27BB089527B381E090E002C005
:1003E000880F991F6A95E2F78095822387BB08954D
:1003F000413059F424B381E090E002C0880F991F86
:100400006A95E2F7282B24BB089524B381E090E09D
:1004100002C0880F991F6A95E2F78095822384BBFA
:100420000895413059F421B381E090E002C0880F73
:10043000991F6A95E2F7282B21BB089521B381E02B
:1004400090E002C0880F991F6A95E2F78095822399
:1004500081BB0895813009F1813030F08230B1F1F3
:10046000833009F064C04BC0413059F42BB381E0B4
:1004700090E002C0880F991F6A95E2F7282B2BBBEA
:1004800008952BB381E090E002C0880F991F6A9510
:10049000E2F7809582238BBB0895413059F428B34D
:1004A00081E090E002C0880F991F6A95E2F7282B3F
:1004B00028BB089528B381E090E002C0880F991FFF
:1004C0006A95E2F78095822388BB0895413059F4FC
:1004D00025B381E090E002C0880F991F6A95E2F78A
:1004E000282B25BB089525B381E090E002C0880F3A
:1004F000991F6A95E2F78095822385BB0895413064
:1005000059F422B381E090E002C0880F991F6A95E8
:10051000E2F7282B22BB089522B381E090E002C0CD
:10052000880F991F6A95E2F78095822382BB089510
:10053000813049F0813028F0823039F0833041F445
:1005400006C06ABB089567BB089564BB089561BB8C
:100550000895813049F0813028F0823039F08330BD
:1005600041F406C06BBB089568BB089565BB089550
:1005700062BB0895813069F082301CF4882339F021
:1005800004C0823041F0833079F08FEF089589B351
:1005900003C086B301C083B390E002C095958795F0
:1005A0006A95E2F78170089580B390E002C0959556
:1005B00087956A95E2F781700895813069F08230FD
:1005C0001CF4882339F004C0823041F0833041F0BC
:1005D0008FEF089589B3089586B3089583B308957E
:1005E00080B308951F9383E062E00E94BA02182F3F
:1005F00083E063E00E94BA02282F80E49CE901971F
:10060000F1F780916000813011F090E004C090E03B
:10061000112309F491E080916100813019F42223C3
:1006200009F492E01093600020936100892F1F91DC
:10063000089583E062E040E00E94BC0183E063E053
:1006400040E00E94BC0183E062E041E00E942A0297
:1006500083E063E041E00E942A020895EF92FF9256
:100660000F931F938C016AE070E00E944004FB012D
:1006700082E6E82E80E0F82EEE0DFF1D80E060811E
:100680000E94A902C8016AE070E00E942C04E80EF2
:10069000F91E81E0F70160810E94A9021F910F916C
:1006A000FF90EF90089580E06FEF0E94980281E044
:1006B0006FEF0E949802089582E062E040E00E949D
:1006C0002A02089582E062E041E00E942A02089531
:1006D00082E060E040E00E942A02089582E060E04B
:1006E00041E00E942A02089582E060E041E00E9419
:1006F000BC0182E061E041E00E94BC0182E062E076
:1007000041E00E94BC0108950E94F202813051F440
:1007100080916D00833688F480916D008F5F8093A7
:100720006D000895823049F480916D00863028F084
:1007300080916D00815080936D0008951F93CF9339
:10074000DF938150833010F582E061E041E00E9448
:100750002A0284EC99E028EC30E0F9013197F1F7B6
:100760000197D9F782E061E040E00E942A0210E0A0
:10077000C8ECD0E00E94840382EE94E0FE01319741
:10078000F1F70197D9F71F5F1230A1F7DF91CF91F1
:100790001F910895EF92FF920F931F93CF93DF93D2
:1007A0000E94190380E9E82E85E6F82E0E94840352
:1007B0000E94620300916C00C02FDD27C7FDD09519
:1007C00014C0CE010E942E03043054F010E00E94A9
:1007D0008403C7010197F1F71F5F1A30C1F703C007
:1007E000802F0E949E0301502197101654F30E94FF
:1007F0005C0380916D0080936C000E946E030091F9
:100800006C00C02FDD27C7FDD09514C0CE010E941B
:100810002E03043054F010E00E948403C7010197B6
:10082000F1F71F5F1A30C1F703C0802F0E949E03AB
:1008300001502197101654F30E94680380916D00B7
:1008400080936C00B3CF0E9474030E9453030E94F4
:1008500019030E94CA03FFCFAA1BBB1B51E107C0AB
:10086000AA1FBB1FA617B70710F0A61BB70B881F40
:10087000991F5A95A9F780959095BC01CD010895CF
:1008800097FB092E07260AD077FD04D0E5DF06D0B6
:1008900000201AF4709561957F4F0895F6F79095B2
:0A08A00081959F4F0895F894FFCF53
:0E08AA0001013F065B4F666D7D077F6F1414E2
:00000001FF
