:100000000C942A000C943F000C943F000C943F0089
:100010000C943F000C943F000C943F000C943F0064
:100020000C943F000C943F000C943F000C943F0054
:100030000C943F000C943F000C943F000C943F0044
:100040000C943F000C943F000C943F000C943F0034
:100050000C943F0011241FBECFE5D8E0DEBFCDBF1A
:1000600010E0A0E6B0E0E2E8F4E002C005900D92F6
:10007000A636B107D9F70E9425020C943F020C94D2
:100080000000813009F1813030F08230B1F18330ED
:1000900009F064C04BC0413059F42AB381E090E0CC
:1000A00002C0880F991F6A95E2F7282B2ABB089592
:1000B0002AB381E090E002C0880F991F6A95E2F7A9
:1000C000809582238ABB0895413059F427B381E09B
:1000D00090E002C0880F991F6A95E2F7282B27BB92
:1000E000089527B381E090E002C0880F991F6A95B8
:1000F000E2F78095822387BB0895413059F424B3F9
:1001000081E090E002C0880F991F6A95E2F7282BE2
:1001100024BB089524B381E090E002C0880F991FAA
:100120006A95E2F78095822384BB0895413059F4A3
:1001300021B381E090E002C0880F991F6A95E2F731
:10014000282B21BB089521B381E090E002C0880FE5
:10015000991F6A95E2F78095822381BB08958130CB
:1001600009F1813030F08230B1F1833009F064C0A0
:100170004BC0413059F42BB381E090E002C0880FAE
:10018000991F6A95E2F7282B2BBB08952BB381E0CA
:1001900090E002C0880F991F6A95E2F7809582234C
:1001A0008BBB0895413059F428B381E090E002C040
:1001B000880F991F6A95E2F7282B28BB089528B36A
:1001C00081E090E002C0880F991F6A95E2F7809560
:1001D000822388BB0895413059F425B381E090E033
:1001E00002C0880F991F6A95E2F7282B25BB089556
:1001F00025B381E090E002C0880F991F6A95E2F76D
:100200008095822385BB0895413059F422B381E063
:1002100090E002C0880F991F6A95E2F7282B22BB55
:10022000089522B381E090E002C0880F991F6A957B
:10023000E2F78095822382BB0895813049F08130B6
:1002400028F0823039F0833041F406C06ABB08954B
:1002500067BB089564BB089561BB0895813049F080
:10026000813028F0823039F0833041F406C06BBB16
:10027000089568BB089565BB089562BB08958130F9
:1002800069F082301CF4882339F004C0823041F0D8
:10029000833079F08FEF089589B303C086B301C02E
:1002A00083B390E002C0959587956A95E2F78170D7
:1002B000089580B390E002C0959587956A95E2F71E
:1002C00081700895813069F082301CF4882339F000
:1002D00004C0823041F0833041F08FEF089589B33C
:1002E000089586B3089583B3089580B3089508955B
:1002F0000F931F93182F81E060E041E00E94AF0050
:1003000081E061E040E00E94AF0082E0612F0E9446
:100310002E0181E062E041E00E94AF0000ED17E0B5
:10032000C8010197F1F781E062E040E00E94AF0070
:10033000C8010197F1F71F910F9108951F93CF9373
:10034000DF93EC0110E003C00E9478011F5FFE0103
:10035000E10FF11D80818823B9F7DF91CF911F91C3
:1003600008950F931F93182F81E060E040E00E94F2
:10037000AF0081E061E040E00E94AF0082E0612FC9
:100380000E942E0181E062E041E00E94AF0000ED9A
:1003900017E0C8010197F1F781E062E040E00E94B8
:1003A000AF00C8010197F1F71F910F91089581E007
:1003B0000E94B1010895603170F4813019F08230EB
:1003C00051F405C0862F80580E94B1010895862FF0
:1003D00080540E94B10108950F931F9382E061E061
:1003E0000E941D0181E060E041E00E94410081E047
:1003F00061E041E00E94410081E062E041E00E9452
:10040000410084EF91E028EC30E0F9013197F1F7F9
:100410000197D9F788E30E94B10100ED17E0C80108
:100420000197F1F78EE00E94B101C8010197F1F741
:1004300081E00E94B10180EA9FE00197F1F786E038
:100440000E94B1011F910F9108950E94EC018DE46B
:100450000E94780181E60E9478018CE60E94780172
:1004600089E60E9478018BE60E94780181E067E0CE
:100470000E94DB0180E690E00E949E01FFCFF8948D
:02048000FFCFAC
:0604820048616E610000FC
:00000001FF
