:100000000C942A000C9434000C9434000C943400AA
:100010000C9434000C9434000C9434000C94340090
:100020000C9434000C9434000C9434000C94340080
:100030000C9434000C9434000C9434000C94340070
:100040000C9434000C9434000C9434000C94340060
:100050000C94340011241FBECFE5D8E0DEBFCDBF25
:100060000E949D020C94B4020C94000088E18AB9AD
:1000700086E880BD83E389B908955D9BFECF8CB986
:1000800008955F9BFECF8CB190E008954130D1F58B
:100090008234B9F0833420F4813409F071C006C091
:1000A0008334D1F0843409F06BC021C02AB381E0DD
:1000B00090E002C0880F991F6A95E2F7282B2ABBAF
:1000C000089527B381E090E002C0880F991F6A95D8
:1000D000E2F7282B27BB089524B381E090E002C00B
:1000E000880F991F6A95E2F7282B24BB089521B346
:1000F00081E090E002C0880F991F6A95E2F7282BF3
:1001000021BB0895442309F03BC08234B1F083340D
:1001100018F48134A9F505C08334D9F0843481F50D
:1001200024C02AB381E090E002C0880F991F6A952D
:10013000E2F7809582238ABB089527B381E090E09F
:1001400002C0880F991F6A95E2F78095822387BBCA
:10015000089524B381E090E002C0880F991F6A954A
:10016000E2F78095822384BB089521B381E090E07B
:1001700002C0880F991F6A95E2F78095822381BBA0
:1001800008954130D1F58234B9F0833420F48134BC
:1001900009F071C006C08334D1F0843409F06BC01B
:1001A00021C02BB381E090E002C0880F991F6A95AF
:1001B000E2F7282B2BBB089528B381E090E002C022
:1001C000880F991F6A95E2F7282B28BB089525B35D
:1001D00081E090E002C0880F991F6A95E2F7282B12
:1001E00025BB089522B381E090E002C0880F991FDB
:1001F0006A95E2F7282B22BB0895442309F03BC0FF
:100200008234B1F0833418F48134A9F505C0833405
:10021000D9F0843481F524C02BB381E090E002C092
:10022000880F991F6A95E2F7809582238BBB08950A
:1002300028B381E090E002C0880F991F6A95E2F729
:100240008095822388BB089525B381E090E002C0A9
:10025000880F991F6A95E2F78095822385BB0895E0
:1002600022B381E090E002C0880F991F6A95E2F7FF
:100270008095822382BB0895823469F0833418F418
:10028000813429F406C0833441F0843479F080E06D
:10029000089589B303C086B301C083B390E002C060
:1002A000959587956A95E2F78170089580B390E0FF
:1002B00002C0959587956A95E2F78170089582341A
:1002C00061F0833418F4813469F405C0833439F063
:1002D000843441F406C06ABB089567BB089564BBCB
:1002E000089561BB0895823461F0833418F4813439
:1002F00069F405C0833439F0843441F406C06BBB23
:10030000089568BB089565BB089562BB0895823463
:1003100069F0833418F4813429F406C0833441F041
:10032000843441F080E0089589B3089586B3089538
:1003300083B3089580B308958234A9F0833418F408
:10034000813489F505C08334C9F0843461F521C056
:100350002BB381E090E002C0880F991F6A95E2F705
:1003600028272BBB089528B381E090E002C0880FB6
:10037000991F6A95E2F7282728BB089525B381E0E5
:1003800090E002C0880F991F6A95E2F7282725BBE5
:10039000089522B381E090E002C0880F991F6A950A
:1003A000E2F7282722BB0895823471F0833418F4D1
:1003B0008134A9F405C0833459F0843481F40CC02D
:1003C0008AB38F608ABB089587B38F6087BB089517
:1003D00084B38F6084BB089581B38F6081BB08951F
:1003E000823471F0833418F48134A9F405C0833465
:1003F00059F0843481F40CC08AB3806F8ABB0895AD
:1004000087B3806F87BB089584B3806F84BB0895E2
:1004100081B3806F81BB08956F70823479F083342B
:1004200018F48134C9F405C0833469F08434A1F42C
:100430000FC08BB3807F682B6BBB089588B3807F20
:10044000682B68BB089585B3807F682B65BB0895D2
:1004500082B3807F682B62BB08956295607F82348F
:1004600079F0833418F48134C9F405C0833469F019
:100470008434A1F40FC08BB38F70682B6BBB0895CD
:1004800088B38F70682B68BB089585B38F70682B15
:1004900065BB089582B38F70682B62BB0895823468
:1004A000E1F0833420F4813409F046C006C083347F
:1004B00021F1843409F040C030C03AB381E090E0CB
:1004C00002C0880F991F6A95E2F7282F20952323F1
:1004D0002ABB2BB3822B8BBB089537B381E090E00E
:1004E00002C0880F991F6A95E2F7282F20952323D1
:1004F00027BB28B3822B88BB089534B381E090E0FA
:1005000002C0880F991F6A95E2F7282F20952323B0
:1005100024BB25B3822B85BB089531B381E090E0E5
:1005200002C0880F991F6A95E2F7282F2095232390
:1005300021BB22B3822B82BB08950E94360081E446
:1005400060E041E00E94460081E460E040E00E94FB
:10055000C1000E944100803811F4D89A01C0D89897
:0C05600090E00E943D00F5CFF894FFCF22
:00000001FF
