:100000000C942A000C9434000C9434000C943400AA
:100010000C9434000C9434000C9434000C94340090
:100020000C9434000C9434000C9434000C94340080
:100030000C9434000C9434000C9434000C94340070
:100040000C9434000C9434000C9434000C94340060
:100050000C94340011241FBECFE5D8E0DEBFCDBF25
:100060000E946C010C9493010C940000813009F102
:10007000813030F08230B1F1833009F064C04BC080
:10008000413059F42AB381E090E002C0880F991FF3
:100090006A95E2F7282B2ABB08952AB381E090E005
:1000A00002C0880F991F6A95E2F7809582238ABB68
:1000B0000895413059F427B381E090E002C0880FE1
:1000C000991F6A95E2F7282B27BB089527B381E093
:1000D00090E002C0880F991F6A95E2F7809582230D
:1000E00087BB0895413059F424B381E090E002C009
:1000F000880F991F6A95E2F7282B24BB089524B333
:1001000081E090E002C0880F991F6A95E2F7809520
:10011000822384BB0895413059F421B381E090E0FB
:1001200002C0880F991F6A95E2F7282B21BB08951A
:1001300021B381E090E002C0880F991F6A95E2F731
:100140008095822381BB0895813009F1813030F0A0
:100150008230B1F1833009F064C04BC0413059F4B2
:100160002BB381E090E002C0880F991F6A95E2F7F7
:10017000282B2BBB08952BB381E090E002C0880FA1
:10018000991F6A95E2F7809582238BBB08954130D1
:1001900059F428B381E090E002C0880F991F6A9556
:1001A000E2F7282B28BB089528B381E090E002C035
:1001B000880F991F6A95E2F78095822388BB08957E
:1001C000413059F425B381E090E002C0880F991FB7
:1001D0006A95E2F7282B25BB089525B381E090E0CE
:1001E00002C0880F991F6A95E2F78095822385BB2C
:1001F0000895413059F422B381E090E002C0880FA5
:10020000991F6A95E2F7282B22BB089522B381E05B
:1002100090E002C0880F991F6A95E2F780958223CB
:1002200082BB0895813049F0813028F0823039F066
:10023000833041F406C06ABB089567BB089564BB70
:10024000089561BB0895813049F0813028F08230F3
:1002500039F0833041F406C06BBB089568BB089544
:1002600065BB089562BB0895813069F082301CF44B
:10027000882339F004C0823041F0833079F08FEF69
:10028000089589B303C086B301C083B390E002C070
:10029000959587956A95E2F78170089580B390E00F
:1002A00002C0959587956A95E2F78170089581302F
:1002B00069F082301CF4882339F004C0823041F0A8
:1002C000833041F08FEF089589B3089586B3089580
:1002D00083B3089580B30895EF92FF921F93CF9355
:1002E000DF9382E090E06FE070E00E94120110E086
:1002F00081E0E82EF12CC8ECD0E0B701012E02C05D
:10030000660F771F0A94E2F782E00E94230180E1E2
:1003100097E2FE013197F1F70197D9F71F5F14308B
:0A03200060F310E0EACFF894FFCF7D
:00000001FF
