:100000000C942A000C9447000C9447000C94470071
:100010000C9447000C9447000C9447000C94470044
:100020000C9447000C9447000C9447000C94470034
:100030000C9447000C9447000C9447000C94470024
:100040000C9447000C9447000C9447000C94470014
:100050000C94470011241FBECFE5D8E0DEBFCDBF12
:1000600010E0A0E6B0E0EEE3F8E002C005900D92EB
:10007000AC37B107D9F710E0ACE7B0E001C01D9292
:10008000AE37B107E1F70E94D5030C941D040C9420
:100090000000813009F1813030F08230B1F18330DD
:1000A00009F064C04BC0413059F42AB381E090E0BC
:1000B00002C0880F991F6A95E2F7282B2ABB089582
:1000C0002AB381E090E002C0880F991F6A95E2F799
:1000D000809582238ABB0895413059F427B381E08B
:1000E00090E002C0880F991F6A95E2F7282B27BB82
:1000F000089527B381E090E002C0880F991F6A95A8
:10010000E2F78095822387BB0895413059F424B3E8
:1001100081E090E002C0880F991F6A95E2F7282BD2
:1001200024BB089524B381E090E002C0880F991F9A
:100130006A95E2F78095822384BB0895413059F493
:1001400021B381E090E002C0880F991F6A95E2F721
:10015000282B21BB089521B381E090E002C0880FD5
:10016000991F6A95E2F78095822381BB08958130BB
:1001700009F1813030F08230B1F1833009F064C090
:100180004BC0413059F42BB381E090E002C0880F9E
:10019000991F6A95E2F7282B2BBB08952BB381E0BA
:1001A00090E002C0880F991F6A95E2F7809582233C
:1001B0008BBB0895413059F428B381E090E002C030
:1001C000880F991F6A95E2F7282B28BB089528B35A
:1001D00081E090E002C0880F991F6A95E2F7809550
:1001E000822388BB0895413059F425B381E090E023
:1001F00002C0880F991F6A95E2F7282B25BB089546
:1002000025B381E090E002C0880F991F6A95E2F75C
:100210008095822385BB0895413059F422B381E053
:1002200090E002C0880F991F6A95E2F7282B22BB45
:10023000089522B381E090E002C0880F991F6A956B
:10024000E2F78095822382BB0895813049F08130A6
:1002500028F0823039F0833041F406C06ABB08953B
:1002600067BB089564BB089561BB0895813049F070
:10027000813028F0823039F0833041F406C06BBB06
:10028000089568BB089565BB089562BB08958130E9
:1002900069F082301CF4882339F004C0823041F0C8
:1002A000833079F08FEF089589B303C086B301C01E
:1002B00083B390E002C0959587956A95E2F78170C7
:1002C000089580B390E002C0959587956A95E2F70E
:1002D00081700895813069F082301CF4882339F0F0
:1002E00004C0823041F0833041F08FEF089589B32C
:1002F000089586B3089583B3089580B308958091D7
:100300007D008F5F80937D00803158F010927D00DA
:1003100080917C008F5F80937C00823010F010927F
:100320007C0008950F931F93182F81E060E040E058
:100330000E94B70081E061E040E00E94B70080E0E9
:10034000612F0E94360181E062E041E00E94B70027
:1003500000ED17E0C8010197F1F781E062E040E0AD
:100360000E94B700C8010197F1F71F910F910895FE
:1003700081E00E94920110927C0010927D0080EA40
:100380009FE00197F1F70895603170F4813019F022
:10039000823051F405C0862F80580E949201089542
:1003A000862F80540E94920108950F931F93182F57
:1003B00080917C008F5F60917D000E94C40181E08C
:1003C00060E041E00E94B70081E061E040E00E940F
:1003D000B70080E0612F0E94360181E062E041E0D9
:1003E0000E94B70000ED17E0C8010197F1F781E026
:1003F00062E040E00E94B700C8010197F1F70E9457
:100400007F011F910F9108956F927F928F929F921B
:10041000AF92BF92CF92DF92EF92FF920F931F9312
:10042000DF93CF93CDB7DEB72A970FB6F894DEBF30
:100430000FBECDBF6B017C01611571058105910572
:1004400021F480E30E94D50144C0882499245401FA
:100450003E010894611C711C8301080D191DC70120
:10046000B6012AE030E040E050E00E94FB03605D0E
:10047000F80160830894811C911CA11CB11CC70168
:10048000B6012AE030E040E050E00E94FB03C901E1
:10049000DA016C017D01C114D104E104F104E1F63B
:1004A000D82CDA94ED2CFF24E7FCF094D394E60CDE
:1004B000F71C00E010E007C0F70180810E94D50121
:1004C0000894E108F1080F5F1F4F8D2D801B87FFF7
:1004D000F3CF2A960FB6F894DEBF0FBECDBFCF91F3
:1004E000DF911F910F91FF90EF90DF90CF90BF9021
:1004F000AF909F908F907F906F9008951F93CF93B0
:10050000DF93EC0110E003C00E94D5011F5FFE01E4
:10051000E10FF11D80818823B9F7DF91CF911F9101
:1005200008950F931F9380E061E00E94250181E010
:1005300060E041E00E94490081E061E041E00E940A
:10054000490081E062E041E00E94490084EF91E0CF
:1005500028EC30E0F9013197F1F70197D9F788E3FA
:100560000E94920100ED17E0C8010197F1F78EE0BB
:100570000E949201C8010197F1F781E00E94920167
:1005800080EA9FE00197F1F786E00E9492011F91B7
:100590000F910895FF920F931F93CF93DF9382E003
:1005A0006FEF0E94360100E0C0E4DCE982E0602FDA
:1005B00040E00E94B70010E094E0F92EF10E82E0D6
:1005C0006F2D0E944701882301F5CE010197F1F7B5
:1005D00082E06F2D0E9447018823B9F4E12FF0E0FB
:1005E000EE0FFF1FEE0FFF1FE00FF11DE559FF4F4C
:1005F000108182E06F2D0E9447018823D1F382E0B1
:10060000602F41E00E94B7000CC01F5F1430A1F6BC
:1006100082E0602F41E00E94B7000F5F043031F6A6
:100620001FEF812FDF91CF911F910F91FF900895C0
:1006300082E06FE00E94250182E06FEF0E943601A8
:1006400008958F929F92AF92BF92CF92DF92EF92D6
:10065000FF920F931F93AA24BB2465010E94CA0234
:10066000882E8FEF8816D1F3882D80538A30C8F4F6
:10067000882D0E94D501C601B5012AE030E040E096
:1006800050E00E94DC03282D30E020533040590117
:10069000CC24B7FCC094DC2CA60EB71EC81ED91EF5
:1006A000DDCF93E4891619F40E94B80171C0882D3A
:1006B0000E94D501EE24FF2487010E94CA02982ED1
:1006C000AFEF8A17D1F380538A30C8F4892D0E9486
:1006D000D501C801B7012AE030E040E050E00E94B7
:1006E000DC03292D30E02053304079010027F7FC4E
:1006F0000095102FE60EF71E081F191FDECFBDE371
:100700009B1609F045C08BE2881669F0881520F029
:100710009AE28916A1F513C0ADE28A1649F0BFE24C
:100720008B1669F515C0EA0CFB1C0C1D1D1D2AC09B
:10073000D601C5018E199F09A00BB10B16C0C801C7
:10074000B701A60195010E94DC037B018C011AC050
:10075000E114F1040105110559F0C601B501A80124
:1007600097010E94FB03C901DA017C018D010AC0D7
:100770000E94B80180E690E00E947E0209C0EE244B
:10078000FF2487010E94B801C801B7010E9404023A
:1007900080E090E01F910F91FF90EF90DF90CF905D
:1007A000BF90AF909F908F9008950E9418030E9471
:1007B00091020E942103FFCF629FD001739FF0013D
:1007C000829FE00DF11D649FE00DF11D929FF00DE1
:1007D000839FF00D749FF00D659FF00D9927729F18
:1007E000B00DE11DF91F639FB00DE11DF91FBD01A3
:1007F000CF0111240895A1E21A2EAA1BBB1BFD01F3
:100800000DC0AA1FBB1FEE1FFF1FA217B307E407EF
:10081000F50720F0A21BB30BE40BF50B661F771F47
:10082000881F991F1A9469F7609570958095909527
:0E0830009B01AC01BD01CF010895F894FFCFEC
:10083E004D617468204572726F72003734314338DF
:0C084E003532303936333D2F2A2D2B0077
:00000001FF
