:100000000C942A000C943F000C943F000C943F0089
:100010000C943F000C943F000C943F000C943F0064
:100020000C943F000C943F000C943F000C943F0054
:100030000C943F000C943F000C943F000C943F0044
:100040000C943F000C943F000C943F000C943F0034
:100050000C943F0011241FBECFE5D4E0DEBFCDBF1E
:1000600010E0A0E6B0E0E6E2F3E002C005900D92F9
:10007000AA36B107D9F70E9477010C9491010C942C
:100080000000813009F1813030F08230B1F18330ED
:1000900009F064C04BC0413059F42AB381E090E0CC
:1000A00002C0880F991F6A95E2F7282B2ABB089592
:1000B0002AB381E090E002C0880F991F6A95E2F7A9
:1000C000809582238ABB0895413059F427B381E09B
:1000D00090E002C0880F991F6A95E2F7282B27BB92
:1000E000089527B381E090E002C0880F991F6A95B8
:1000F000E2F78095822387BB0895413059F424B3F9
:1001000081E090E002C0880F991F6A95E2F7282BE2
:1001100024BB089524B381E090E002C0880F991FAA
:100120006A95E2F78095822384BB0895413059F4A3
:1001300021B381E090E002C0880F991F6A95E2F731
:10014000282B21BB089521B381E090E002C0880FE5
:10015000991F6A95E2F78095822381BB08958130CB
:1001600009F1813030F08230B1F1833009F064C0A0
:100170004BC0413059F42BB381E090E002C0880FAE
:10018000991F6A95E2F7282B2BBB08952BB381E0CA
:1001900090E002C0880F991F6A95E2F7809582234C
:1001A0008BBB0895413059F428B381E090E002C040
:1001B000880F991F6A95E2F7282B28BB089528B36A
:1001C00081E090E002C0880F991F6A95E2F7809560
:1001D000822388BB0895413059F425B381E090E033
:1001E00002C0880F991F6A95E2F7282B25BB089556
:1001F00025B381E090E002C0880F991F6A95E2F76D
:100200008095822385BB0895413059F422B381E063
:1002100090E002C0880F991F6A95E2F7282B22BB55
:10022000089522B381E090E002C0880F991F6A957B
:10023000E2F78095822382BB0895813049F08130B6
:1002400028F0823039F0833041F406C06ABB08954B
:1002500067BB089564BB089561BB0895813049F080
:10026000813028F0823039F0833041F406C06BBB16
:10027000089568BB089565BB089562BB08958130F9
:1002800069F082301CF4882339F004C0823041F0D8
:10029000833079F08FEF089589B303C086B301C02E
:1002A00083B390E002C0959587956A95E2F78170D7
:1002B000089580B390E002C0959587956A95E2F71E
:1002C00081700895813069F082301CF4882339F000
:1002D00004C0823041F0833041F08FEF089589B33C
:1002E000089586B3089583B3089580B308958FEF7A
:1002F00084BB20E030E048EC50E0F901E05AFF4FC9
:10030000808185BB84EC99E0FA013197F1F7019780
:10031000D9F72F5F3F4F2A3031057CF320E030E0E2
:06032000ECCFF894FFCFC2
:0A0326003F065B4F666D7D077F6F99
:00000001FF
