:100000000C942A000C943C000C943C000C943C0092
:100010000C943C000C943C000C943C000C943C0070
:100020000C943C000C943C000C9469000C94EC0083
:100030000C943C000C943C000C943C000C943C0050
:100040000C943C000C943C000C943C000C943C0040
:100050000C943C0011241FBECFE5D8E0DEBFCDBF1D
:1000600010E0A0E6B0E001C01D92A037B107E1F7B3
:100070000E94C9030C941C040C94000013BE89B7A1
:10008000816089BF089582BF089583B7887F8260A9
:1000900083BF089583B7887F83BF0895609360000E
:1000A0007093610080936200909363000895909331
:1000B000650080936400089588E083BF89B78260FB
:1000C00089BF0895909367008093660008958CBF60
:1000D00008951F920F920FB60F9211242F933F9302
:1000E0004F935F936F937F938F939F93AF93BF9340
:1000F000EF93FF9380916C0090916D00A0916E0042
:10010000B0916F000196A11DB11D80936C0090937A
:100110006D00A0936E00B0936F002091600030914D
:100120006100409162005091630082179307A40719
:10013000B50778F010926C0010926D0010926E006E
:1001400010926F00E0916600F0916700309709F01F
:100150000995FF91EF91BF91AF919F918F917F9101
:100160006F915F914F913F912F910F900FBE0F9024
:100170001F901895853608F084E6682F70E080E0BF
:1001800090E02FEF30E040E050E00E94DB0324E6F7
:1001900030E040E050E00E94FA032CBF83B7887F34
:1001A000826083BF08B601FEFDCF83B7887F83BF1F
:1001B00088B7826088BF089527E0813D920718F0D4
:1001C00080ED97E006C023E0883E920710F488EEA9
:1001D00093E09BBD8ABD08951F920F920FB60F92B8
:1001E00011242F933F934F935F936F937F938F933C
:1001F0009F93AF93BF93EF93FF938091680090918B
:100200006900A0916A00B0916B000196A11DB11D1B
:100210008093680090936900A0936A00B0936B008C
:100220002091600030916100409162005091630024
:1002300082179307A407B50778F010926800109210
:10024000690010926A0010926B00E0916400F091D6
:100250006500309709F00995FF91EF91BF91AF913B
:100260009F918F917F916F915F914F913F912F91CE
:100270000F900FBE0F901F90189584E465E041E049
:100280000E94720182E88FBD8AE18EBD80E29EE409
:1002900097BD86BD089582E463E041E00E9472014B
:1002A00088E683BF89B78D7F89BF08958FB780683F
:1002B0008FBF08958FB78F778FBF089584E463E071
:1002C00040E00E94720184E463E041E00E94ED019D
:1002D00085B78B7F85BF85B7886085BF8BB7806802
:1002E0008BBF08954130D1F58234B9F0833420F4C6
:1002F000813409F071C006C08334D1F0843409F030
:100300006BC021C02AB381E090E002C0880F991F22
:100310006A95E2F7282B2ABB089527B381E090E085
:1003200002C0880F991F6A95E2F7282B27BB089512
:1003300024B381E090E002C0880F991F6A95E2F72C
:10034000282B24BB089521B381E090E002C0880FE0
:10035000991F6A95E2F7282B21BB0895442309F0E1
:100360003BC08234B1F0833418F48134A9F505C060
:100370008334D9F0843481F524C02AB381E090E03D
:1003800002C0880F991F6A95E2F7809582238ABB85
:10039000089527B381E090E002C0880F991F6A9505
:1003A000E2F78095822387BB089524B381E090E033
:1003B00002C0880F991F6A95E2F78095822384BB5B
:1003C000089521B381E090E002C0880F991F6A95DB
:1003D000E2F78095822381BB08954130D1F58234C4
:1003E000B9F0833420F4813409F071C006C083343D
:1003F000D1F0843409F06BC021C02BB381E090E0D0
:1004000002C0880F991F6A95E2F7282B2BBB08952D
:1004100028B381E090E002C0880F991F6A95E2F747
:10042000282B28BB089525B381E090E002C0880FF7
:10043000991F6A95E2F7282B25BB089522B381E026
:1004400090E002C0880F991F6A95E2F7282B22BB23
:100450000895442309F03BC08234B1F0833418F48A
:100460008134A9F505C08334D9F0843481F524C0E2
:100470002BB381E090E002C0880F991F6A95E2F7E4
:10048000809582238BBB089528B381E090E002C061
:10049000880F991F6A95E2F78095822388BB08959B
:1004A00025B381E090E002C0880F991F6A95E2F7BA
:1004B0008095822385BB089522B381E090E002C03D
:1004C000880F991F6A95E2F78095822382BB089571
:1004D000823469F0833418F4813429F406C08334FB
:1004E00041F0843479F080E0089589B303C086B385
:1004F00001C083B390E002C0959587956A95E2F7B5
:100500008170089580B390E002C0959587956A95B3
:10051000E2F781700895823461F0833418F48134F5
:1005200069F405C0833439F0843441F406C06ABBF1
:10053000089567BB089564BB089561BB0895823434
:1005400061F0833418F4813469F405C0833439F0E0
:10055000843441F406C06BBB089568BB089565BB45
:10056000089562BB0895823469F0833418F48134AD
:1005700029F406C0833441F0843441F080E00895CA
:1005800089B3089586B3089583B3089580B3089519
:100590008234A9F0833418F4813489F505C083349A
:1005A000C9F0843461F521C02BB381E090E002C032
:1005B000880F991F6A95E2F728272BBB089528B367
:1005C00081E090E002C0880F991F6A95E2F7282722
:1005D00028BB089525B381E090E002C0880F991FE1
:1005E0006A95E2F7282725BB089522B381E090E0C1
:1005F00002C0880F991F6A95E2F7282722BB089549
:10060000823471F0833418F48134A9F405C0833442
:1006100059F0843481F40CC08AB38F608ABB08958A
:1006200087B38F6087BB089584B38F6084BB0895C0
:1006300081B38F6081BB0895823471F0833418F4E4
:100640008134A9F405C0833459F0843481F40CC09A
:100650008AB3806F8ABB089587B3806F87BB089584
:1006600084B3806F84BB089581B3806F81BB08958C
:100670006F70823479F0833418F48134C9F405C082
:10068000833469F08434A1F40FC08BB3807F682B6E
:100690006BBB089588B3807F682B68BB089585B3D2
:1006A000807F682B65BB089582B3807F682B62BB17
:1006B00008956295607F823479F0833418F4813430
:1006C000C9F405C0833469F08434A1F40FC08BB33E
:1006D0008F70682B6BBB089588B38F70682B68BBD5
:1006E000089585B38F70682B65BB089582B38F70B2
:1006F000682B62BB08958234E1F0833420F48134A6
:1007000009F046C006C0833421F1843409F040C0AA
:1007100030C03AB381E090E002C0880F991F6A951B
:10072000E2F7282F209523232ABB2BB3822B8BBBE8
:10073000089537B381E090E002C0880F991F6A9551
:10074000E2F7282F2095232327BB28B3822B88BBD1
:10075000089534B381E090E002C0880F991F6A9534
:10076000E2F7282F2095232324BB25B3822B85BBBA
:10077000089531B381E090E002C0880F991F6A9517
:10078000E2F7282F2095232321BB22B3822B82BBA3
:100790000895CF93DF930E943D01C8ECD0E080ED37
:1007A00097E00E94DC0080E197E2FE013197F1F7CB
:1007B0000197D9F7F4CF629FD001739FF001829F18
:1007C000E00DF11D649FE00DF11D929FF00D839FE0
:1007D000F00D749FF00D659FF00D9927729FB00D7D
:1007E000E11DF91F639FB00DE11DF91FBD01CF0190
:1007F00011240895A1E21A2EAA1BBB1BFD010DC0F6
:10080000AA1FBB1FEE1FFF1FA217B307E407F507C0
:1008100020F0A21BB30BE40BF50B661F771F881F9C
:10082000991F1A9469F760957095809590959B0132
:0C083000AC01BD01CF010895F894FFCF8A
:00000001FF
